{
  "_format": "hh-sol-artifact-1",
  "contractName": "DraftDayNFT",
  "sourceName": "contracts/NFT.sol",
  "abi": [
    {
      "inputs": [],
      "stateMutability": "nonpayable",
      "type": "constructor"
    },
    {
      "anonymous": false,
      "inputs": [
        {
          "indexed": true,
          "internalType": "address",
          "name": "owner",
          "type": "address"
        },
        {
          "indexed": true,
          "internalType": "address",
          "name": "approved",
          "type": "address"
        },
        {
          "indexed": true,
          "internalType": "uint256",
          "name": "tokenId",
          "type": "uint256"
        }
      ],
      "name": "Approval",
      "type": "event"
    },
    {
      "anonymous": false,
      "inputs": [
        {
          "indexed": true,
          "internalType": "address",
          "name": "owner",
          "type": "address"
        },
        {
          "indexed": true,
          "internalType": "address",
          "name": "operator",
          "type": "address"
        },
        {
          "indexed": false,
          "internalType": "bool",
          "name": "approved",
          "type": "bool"
        }
      ],
      "name": "ApprovalForAll",
      "type": "event"
    },
    {
      "anonymous": false,
      "inputs": [
        {
          "indexed": false,
          "internalType": "address",
          "name": "sender",
          "type": "address"
        },
        {
          "indexed": false,
          "internalType": "uint256",
          "name": "tokenId",
          "type": "uint256"
        }
      ],
      "name": "DraftDayNFTMinted",
      "type": "event"
    },
    {
      "anonymous": false,
      "inputs": [
        {
          "indexed": true,
          "internalType": "address",
          "name": "from",
          "type": "address"
        },
        {
          "indexed": true,
          "internalType": "address",
          "name": "to",
          "type": "address"
        },
        {
          "indexed": true,
          "internalType": "uint256",
          "name": "tokenId",
          "type": "uint256"
        }
      ],
      "name": "Transfer",
      "type": "event"
    },
    {
      "inputs": [
        {
          "internalType": "address",
          "name": "to",
          "type": "address"
        },
        {
          "internalType": "uint256",
          "name": "tokenId",
          "type": "uint256"
        }
      ],
      "name": "approve",
      "outputs": [],
      "stateMutability": "nonpayable",
      "type": "function"
    },
    {
      "inputs": [
        {
          "internalType": "address",
          "name": "owner",
          "type": "address"
        }
      ],
      "name": "balanceOf",
      "outputs": [
        {
          "internalType": "uint256",
          "name": "",
          "type": "uint256"
        }
      ],
      "stateMutability": "view",
      "type": "function"
    },
    {
      "inputs": [
        {
          "internalType": "uint256",
          "name": "tokenId",
          "type": "uint256"
        }
      ],
      "name": "getApproved",
      "outputs": [
        {
          "internalType": "address",
          "name": "",
          "type": "address"
        }
      ],
      "stateMutability": "view",
      "type": "function"
    },
    {
      "inputs": [
        {
          "internalType": "address",
          "name": "owner",
          "type": "address"
        },
        {
          "internalType": "address",
          "name": "operator",
          "type": "address"
        }
      ],
      "name": "isApprovedForAll",
      "outputs": [
        {
          "internalType": "bool",
          "name": "",
          "type": "bool"
        }
      ],
      "stateMutability": "view",
      "type": "function"
    },
    {
      "inputs": [],
      "name": "mint",
      "outputs": [],
      "stateMutability": "nonpayable",
      "type": "function"
    },
    {
      "inputs": [],
      "name": "name",
      "outputs": [
        {
          "internalType": "string",
          "name": "",
          "type": "string"
        }
      ],
      "stateMutability": "view",
      "type": "function"
    },
    {
      "inputs": [
        {
          "internalType": "uint256",
          "name": "tokenId",
          "type": "uint256"
        }
      ],
      "name": "ownerOf",
      "outputs": [
        {
          "internalType": "address",
          "name": "",
          "type": "address"
        }
      ],
      "stateMutability": "view",
      "type": "function"
    },
    {
      "inputs": [
        {
          "internalType": "address",
          "name": "from",
          "type": "address"
        },
        {
          "internalType": "address",
          "name": "to",
          "type": "address"
        },
        {
          "internalType": "uint256",
          "name": "tokenId",
          "type": "uint256"
        }
      ],
      "name": "safeTransferFrom",
      "outputs": [],
      "stateMutability": "nonpayable",
      "type": "function"
    },
    {
      "inputs": [
        {
          "internalType": "address",
          "name": "from",
          "type": "address"
        },
        {
          "internalType": "address",
          "name": "to",
          "type": "address"
        },
        {
          "internalType": "uint256",
          "name": "tokenId",
          "type": "uint256"
        },
        {
          "internalType": "bytes",
          "name": "_data",
          "type": "bytes"
        }
      ],
      "name": "safeTransferFrom",
      "outputs": [],
      "stateMutability": "nonpayable",
      "type": "function"
    },
    {
      "inputs": [
        {
          "internalType": "address",
          "name": "operator",
          "type": "address"
        },
        {
          "internalType": "bool",
          "name": "approved",
          "type": "bool"
        }
      ],
      "name": "setApprovalForAll",
      "outputs": [],
      "stateMutability": "nonpayable",
      "type": "function"
    },
    {
      "inputs": [
        {
          "internalType": "bytes4",
          "name": "interfaceId",
          "type": "bytes4"
        }
      ],
      "name": "supportsInterface",
      "outputs": [
        {
          "internalType": "bool",
          "name": "",
          "type": "bool"
        }
      ],
      "stateMutability": "view",
      "type": "function"
    },
    {
      "inputs": [],
      "name": "symbol",
      "outputs": [
        {
          "internalType": "string",
          "name": "",
          "type": "string"
        }
      ],
      "stateMutability": "view",
      "type": "function"
    },
    {
      "inputs": [
        {
          "internalType": "uint256",
          "name": "tokenId",
          "type": "uint256"
        }
      ],
      "name": "tokenURI",
      "outputs": [
        {
          "internalType": "string",
          "name": "",
          "type": "string"
        }
      ],
      "stateMutability": "view",
      "type": "function"
    },
    {
      "inputs": [
        {
          "internalType": "address",
          "name": "from",
          "type": "address"
        },
        {
          "internalType": "address",
          "name": "to",
          "type": "address"
        },
        {
          "internalType": "uint256",
          "name": "tokenId",
          "type": "uint256"
        }
      ],
      "name": "transferFrom",
      "outputs": [],
      "stateMutability": "nonpayable",
      "type": "function"
    }
  ],
  "bytecode": "0x60806040523480156200001157600080fd5b506040518060400160405280600981526020017f44726166742044617900000000000000000000000000000000000000000000008152506040518060400160405280600581526020017f4452414654000000000000000000000000000000000000000000000000000000815250816000908051906020019062000096929190620000b8565b508060019080519060200190620000af929190620000b8565b505050620001cd565b828054620000c69062000168565b90600052602060002090601f016020900481019282620000ea576000855562000136565b82601f106200010557805160ff191683800117855562000136565b8280016001018555821562000136579182015b828111156200013557825182559160200191906001019062000118565b5b50905062000145919062000149565b5090565b5b80821115620001645760008160009055506001016200014a565b5090565b600060028204905060018216806200018157607f821691505b602082108114156200019857620001976200019e565b5b50919050565b7f4e487b7100000000000000000000000000000000000000000000000000000000600052602260045260246000fd5b612d2380620001dd6000396000f3fe608060405234801561001057600080fd5b50600436106100ea5760003560e01c80636352211e1161008c578063a22cb46511610066578063a22cb46514610249578063b88d4fde14610265578063c87b56dd14610281578063e985e9c5146102b1576100ea565b80636352211e146101cb57806370a08231146101fb57806395d89b411461022b576100ea565b8063095ea7b3116100c8578063095ea7b31461016d5780631249c58b1461018957806323b872dd1461019357806342842e0e146101af576100ea565b806301ffc9a7146100ef57806306fdde031461011f578063081812fc1461013d575b600080fd5b61010960048036038101906101049190611ce6565b6102e1565b60405161011691906124d3565b60405180910390f35b6101276103c3565b60405161013491906124ee565b60405180910390f35b61015760048036038101906101529190611d38565b610455565b6040516101649190612443565b60405180910390f35b61018760048036038101906101829190611caa565b6104da565b005b6101916105f2565b005b6101ad60048036038101906101a89190611ba4565b610698565b005b6101c960048036038101906101c49190611ba4565b6106f8565b005b6101e560048036038101906101e09190611d38565b610718565b6040516101f29190612443565b60405180910390f35b61021560048036038101906102109190611b3f565b6107ca565b604051610222919061274e565b60405180910390f35b610233610882565b60405161024091906124ee565b60405180910390f35b610263600480360381019061025e9190611c6e565b610914565b005b61027f600480360381019061027a9190611bf3565b610a95565b005b61029b60048036038101906102969190611d38565b610af7565b6040516102a891906124ee565b60405180910390f35b6102cb60048036038101906102c69190611b68565b610c49565b6040516102d891906124d3565b60405180910390f35b60007f80ac58cd000000000000000000000000000000000000000000000000000000007bffffffffffffffffffffffffffffffffffffffffffffffffffffffff1916827bffffffffffffffffffffffffffffffffffffffffffffffffffffffff191614806103ac57507f5b5e139f000000000000000000000000000000000000000000000000000000007bffffffffffffffffffffffffffffffffffffffffffffffffffffffff1916827bffffffffffffffffffffffffffffffffffffffffffffffffffffffff1916145b806103bc57506103bb82610cdd565b5b9050919050565b6060600080546103d29061297e565b80601f01602080910402602001604051908101604052809291908181526020018280546103fe9061297e565b801561044b5780601f106104205761010080835404028352916020019161044b565b820191906000526020600020905b81548152906001019060200180831161042e57829003601f168201915b5050505050905090565b600061046082610d47565b61049f576040517f08c379a0000000000000000000000000000000000000000000000000000000008152600401610496906126ae565b60405180910390fd5b6004600083815260200190815260200160002060009054906101000a900473ffffffffffffffffffffffffffffffffffffffff169050919050565b60006104e582610718565b90508073ffffffffffffffffffffffffffffffffffffffff168373ffffffffffffffffffffffffffffffffffffffff161415610556576040517f08c379a000000000000000000000000000000000000000000000000000000000815260040161054d9061270e565b60405180910390fd5b8073ffffffffffffffffffffffffffffffffffffffff16610575610db3565b73ffffffffffffffffffffffffffffffffffffffff1614806105a457506105a38161059e610db3565b610c49565b5b6105e3576040517f08c379a00000000000000000000000000000000000000000000000000000000081526004016105da906125ee565b60405180910390fd5b6105ed8383610dbb565b505050565b60006105fe6007610e74565b905061060a3382610e82565b61062f81604051806101a001604052806101758152602001612b546101759139610ea0565b610652604051806060016040528060258152602001612cc9602591398233610f14565b61065c6007610fb3565b7f20254488fcce0946846a9e567c4269d1d7522f59321145c36389510107e4f1a7338260405161068d9291906124aa565b60405180910390a150565b6106a96106a3610db3565b82610fc9565b6106e8576040517f08c379a00000000000000000000000000000000000000000000000000000000081526004016106df9061272e565b60405180910390fd5b6106f38383836110a7565b505050565b61071383838360405180602001604052806000815250610a95565b505050565b6000806002600084815260200190815260200160002060009054906101000a900473ffffffffffffffffffffffffffffffffffffffff169050600073ffffffffffffffffffffffffffffffffffffffff168173ffffffffffffffffffffffffffffffffffffffff1614156107c1576040517f08c379a00000000000000000000000000000000000000000000000000000000081526004016107b89061262e565b60405180910390fd5b80915050919050565b60008073ffffffffffffffffffffffffffffffffffffffff168273ffffffffffffffffffffffffffffffffffffffff16141561083b576040517f08c379a00000000000000000000000000000000000000000000000000000000081526004016108329061260e565b60405180910390fd5b600360008373ffffffffffffffffffffffffffffffffffffffff1673ffffffffffffffffffffffffffffffffffffffff168152602001908152602001600020549050919050565b6060600180546108919061297e565b80601f01602080910402602001604051908101604052809291908181526020018280546108bd9061297e565b801561090a5780601f106108df5761010080835404028352916020019161090a565b820191906000526020600020905b8154815290600101906020018083116108ed57829003601f168201915b5050505050905090565b61091c610db3565b73ffffffffffffffffffffffffffffffffffffffff168273ffffffffffffffffffffffffffffffffffffffff16141561098a576040517f08c379a0000000000000000000000000000000000000000000000000000000008152600401610981906125ae565b60405180910390fd5b8060056000610997610db3565b73ffffffffffffffffffffffffffffffffffffffff1673ffffffffffffffffffffffffffffffffffffffff16815260200190815260200160002060008473ffffffffffffffffffffffffffffffffffffffff1673ffffffffffffffffffffffffffffffffffffffff16815260200190815260200160002060006101000a81548160ff0219169083151502179055508173ffffffffffffffffffffffffffffffffffffffff16610a44610db3565b73ffffffffffffffffffffffffffffffffffffffff167f17307eab39ab6107e8899845ad3d59bd9653f200f220920489ca2b5937696c3183604051610a8991906124d3565b60405180910390a35050565b610aa6610aa0610db3565b83610fc9565b610ae5576040517f08c379a0000000000000000000000000000000000000000000000000000000008152600401610adc9061272e565b60405180910390fd5b610af184848484611303565b50505050565b6060610b0282610d47565b610b41576040517f08c379a0000000000000000000000000000000000000000000000000000000008152600401610b389061268e565b60405180910390fd5b6000600660008481526020019081526020016000208054610b619061297e565b80601f0160208091040260200160405190810160405280929190818152602001828054610b8d9061297e565b8015610bda5780601f10610baf57610100808354040283529160200191610bda565b820191906000526020600020905b815481529060010190602001808311610bbd57829003601f168201915b505050505090506000610beb61135f565b9050600081511415610c01578192505050610c44565b600082511115610c36578082604051602001610c1e92919061241f565b60405160208183030381529060405292505050610c44565b610c3f84611376565b925050505b919050565b6000600560008473ffffffffffffffffffffffffffffffffffffffff1673ffffffffffffffffffffffffffffffffffffffff16815260200190815260200160002060008373ffffffffffffffffffffffffffffffffffffffff1673ffffffffffffffffffffffffffffffffffffffff16815260200190815260200160002060009054906101000a900460ff16905092915050565b60007f01ffc9a7000000000000000000000000000000000000000000000000000000007bffffffffffffffffffffffffffffffffffffffffffffffffffffffff1916827bffffffffffffffffffffffffffffffffffffffffffffffffffffffff1916149050919050565b60008073ffffffffffffffffffffffffffffffffffffffff166002600084815260200190815260200160002060009054906101000a900473ffffffffffffffffffffffffffffffffffffffff1673ffffffffffffffffffffffffffffffffffffffff1614159050919050565b600033905090565b816004600083815260200190815260200160002060006101000a81548173ffffffffffffffffffffffffffffffffffffffff021916908373ffffffffffffffffffffffffffffffffffffffff160217905550808273ffffffffffffffffffffffffffffffffffffffff16610e2e83610718565b73ffffffffffffffffffffffffffffffffffffffff167f8c5be1e5ebec7d5bd14f71427d1e84f3dd0314c0f7b2291e5b200ac8c7c3b92560405160405180910390a45050565b600081600001549050919050565b610e9c82826040518060200160405280600081525061141d565b5050565b610ea982610d47565b610ee8576040517f08c379a0000000000000000000000000000000000000000000000000000000008152600401610edf9061264e565b60405180910390fd5b80600660008481526020019081526020016000209080519060200190610f0f9291906119cb565b505050565b610fae838383604051602401610f2c93929190612510565b6040516020818303038152906040527fe3849f79000000000000000000000000000000000000000000000000000000007bffffffffffffffffffffffffffffffffffffffffffffffffffffffff19166020820180517bffffffffffffffffffffffffffffffffffffffffffffffffffffffff8381831617835250505050611478565b505050565b6001816000016000828254019250508190555050565b6000610fd482610d47565b611013576040517f08c379a000000000000000000000000000000000000000000000000000000000815260040161100a906125ce565b60405180910390fd5b600061101e83610718565b90508073ffffffffffffffffffffffffffffffffffffffff168473ffffffffffffffffffffffffffffffffffffffff16148061108d57508373ffffffffffffffffffffffffffffffffffffffff1661107584610455565b73ffffffffffffffffffffffffffffffffffffffff16145b8061109e575061109d8185610c49565b5b91505092915050565b8273ffffffffffffffffffffffffffffffffffffffff166110c782610718565b73ffffffffffffffffffffffffffffffffffffffff161461111d576040517f08c379a0000000000000000000000000000000000000000000000000000000008152600401611114906126ce565b60405180910390fd5b600073ffffffffffffffffffffffffffffffffffffffff168273ffffffffffffffffffffffffffffffffffffffff16141561118d576040517f08c379a00000000000000000000000000000000000000000000000000000000081526004016111849061258e565b60405180910390fd5b6111988383836114a1565b6111a3600082610dbb565b6001600360008573ffffffffffffffffffffffffffffffffffffffff1673ffffffffffffffffffffffffffffffffffffffff16815260200190815260200160002060008282546111f39190612894565b925050819055506001600360008473ffffffffffffffffffffffffffffffffffffffff1673ffffffffffffffffffffffffffffffffffffffff168152602001908152602001600020600082825461124a919061280d565b92505081905550816002600083815260200190815260200160002060006101000a81548173ffffffffffffffffffffffffffffffffffffffff021916908373ffffffffffffffffffffffffffffffffffffffff160217905550808273ffffffffffffffffffffffffffffffffffffffff168473ffffffffffffffffffffffffffffffffffffffff167fddf252ad1be2c89b69c2b068fc378daa952ba7f163c4a11628f55a4df523b3ef60405160405180910390a4505050565b61130e8484846110a7565b61131a848484846114a6565b611359576040517f08c379a00000000000000000000000000000000000000000000000000000000081526004016113509061254e565b60405180910390fd5b50505050565b606060405180602001604052806000815250905090565b606061138182610d47565b6113c0576040517f08c379a00000000000000000000000000000000000000000000000000000000081526004016113b7906126ee565b60405180910390fd5b60006113ca61135f565b905060008151116113ea5760405180602001604052806000815250611415565b806113f48461163d565b60405160200161140592919061241f565b6040516020818303038152906040525b915050919050565b61142783836117ea565b61143460008484846114a6565b611473576040517f08c379a000000000000000000000000000000000000000000000000000000000815260040161146a9061254e565b60405180910390fd5b505050565b60008151905060006a636f6e736f6c652e6c6f679050602083016000808483855afa5050505050565b505050565b60006114c78473ffffffffffffffffffffffffffffffffffffffff166119b8565b15611630578373ffffffffffffffffffffffffffffffffffffffff1663150b7a026114f0610db3565b8786866040518563ffffffff1660e01b8152600401611512949392919061245e565b602060405180830381600087803b15801561152c57600080fd5b505af192505050801561155d57506040513d601f19601f8201168201806040525081019061155a9190611d0f565b60015b6115e0573d806000811461158d576040519150601f19603f3d011682016040523d82523d6000602084013e611592565b606091505b506000815114156115d8576040517f08c379a00000000000000000000000000000000000000000000000000000000081526004016115cf9061254e565b60405180910390fd5b805181602001fd5b63150b7a0260e01b7bffffffffffffffffffffffffffffffffffffffffffffffffffffffff1916817bffffffffffffffffffffffffffffffffffffffffffffffffffffffff191614915050611635565b600190505b949350505050565b60606000821415611685576040518060400160405280600181526020017f300000000000000000000000000000000000000000000000000000000000000081525090506117e5565b600082905060005b600082146116b75780806116a0906129b0565b915050600a826116b09190612863565b915061168d565b60008167ffffffffffffffff8111156116f9577f4e487b7100000000000000000000000000000000000000000000000000000000600052604160045260246000fd5b6040519080825280601f01601f19166020018201604052801561172b5781602001600182028036833780820191505090505b5090505b600085146117de576001826117449190612894565b9150600a8561175391906129f9565b603061175f919061280d565b60f81b81838151811061179b577f4e487b7100000000000000000000000000000000000000000000000000000000600052603260045260246000fd5b60200101907effffffffffffffffffffffffffffffffffffffffffffffffffffffffffffff1916908160001a905350600a856117d79190612863565b945061172f565b8093505050505b919050565b600073ffffffffffffffffffffffffffffffffffffffff168273ffffffffffffffffffffffffffffffffffffffff16141561185a576040517f08c379a00000000000000000000000000000000000000000000000000000000081526004016118519061266e565b60405180910390fd5b61186381610d47565b156118a3576040517f08c379a000000000000000000000000000000000000000000000000000000000815260040161189a9061256e565b60405180910390fd5b6118af600083836114a1565b6001600360008473ffffffffffffffffffffffffffffffffffffffff1673ffffffffffffffffffffffffffffffffffffffff16815260200190815260200160002060008282546118ff919061280d565b92505081905550816002600083815260200190815260200160002060006101000a81548173ffffffffffffffffffffffffffffffffffffffff021916908373ffffffffffffffffffffffffffffffffffffffff160217905550808273ffffffffffffffffffffffffffffffffffffffff16600073ffffffffffffffffffffffffffffffffffffffff167fddf252ad1be2c89b69c2b068fc378daa952ba7f163c4a11628f55a4df523b3ef60405160405180910390a45050565b600080823b905060008111915050919050565b8280546119d79061297e565b90600052602060002090601f0160209004810192826119f95760008555611a40565b82601f10611a1257805160ff1916838001178555611a40565b82800160010185558215611a40579182015b82811115611a3f578251825591602001919060010190611a24565b5b509050611a4d9190611a51565b5090565b5b80821115611a6a576000816000905550600101611a52565b5090565b6000611a81611a7c8461279a565b612769565b905082815260208101848484011115611a9957600080fd5b611aa484828561293c565b509392505050565b600081359050611abb81612af7565b92915050565b600081359050611ad081612b0e565b92915050565b600081359050611ae581612b25565b92915050565b600081519050611afa81612b25565b92915050565b600082601f830112611b1157600080fd5b8135611b21848260208601611a6e565b91505092915050565b600081359050611b3981612b3c565b92915050565b600060208284031215611b5157600080fd5b6000611b5f84828501611aac565b91505092915050565b60008060408385031215611b7b57600080fd5b6000611b8985828601611aac565b9250506020611b9a85828601611aac565b9150509250929050565b600080600060608486031215611bb957600080fd5b6000611bc786828701611aac565b9350506020611bd886828701611aac565b9250506040611be986828701611b2a565b9150509250925092565b60008060008060808587031215611c0957600080fd5b6000611c1787828801611aac565b9450506020611c2887828801611aac565b9350506040611c3987828801611b2a565b925050606085013567ffffffffffffffff811115611c5657600080fd5b611c6287828801611b00565b91505092959194509250565b60008060408385031215611c8157600080fd5b6000611c8f85828601611aac565b9250506020611ca085828601611ac1565b9150509250929050565b60008060408385031215611cbd57600080fd5b6000611ccb85828601611aac565b9250506020611cdc85828601611b2a565b9150509250929050565b600060208284031215611cf857600080fd5b6000611d0684828501611ad6565b91505092915050565b600060208284031215611d2157600080fd5b6000611d2f84828501611aeb565b91505092915050565b600060208284031215611d4a57600080fd5b6000611d5884828501611b2a565b91505092915050565b611d6a816128c8565b82525050565b611d79816128da565b82525050565b6000611d8a826127ca565b611d9481856127e0565b9350611da481856020860161294b565b611dad81612ae6565b840191505092915050565b6000611dc3826127d5565b611dcd81856127f1565b9350611ddd81856020860161294b565b611de681612ae6565b840191505092915050565b6000611dfc826127d5565b611e068185612802565b9350611e1681856020860161294b565b80840191505092915050565b6000611e2f6032836127f1565b91507f4552433732313a207472616e7366657220746f206e6f6e20455243373231526560008301527f63656976657220696d706c656d656e74657200000000000000000000000000006020830152604082019050919050565b6000611e95601c836127f1565b91507f4552433732313a20746f6b656e20616c7265616479206d696e746564000000006000830152602082019050919050565b6000611ed56024836127f1565b91507f4552433732313a207472616e7366657220746f20746865207a65726f2061646460008301527f72657373000000000000000000000000000000000000000000000000000000006020830152604082019050919050565b6000611f3b6019836127f1565b91507f4552433732313a20617070726f766520746f2063616c6c6572000000000000006000830152602082019050919050565b6000611f7b602c836127f1565b91507f4552433732313a206f70657261746f7220717565727920666f72206e6f6e657860008301527f697374656e7420746f6b656e00000000000000000000000000000000000000006020830152604082019050919050565b6000611fe16038836127f1565b91507f4552433732313a20617070726f76652063616c6c6572206973206e6f74206f7760008301527f6e6572206e6f7220617070726f76656420666f7220616c6c00000000000000006020830152604082019050919050565b6000612047602a836127f1565b91507f4552433732313a2062616c616e636520717565727920666f7220746865207a6560008301527f726f2061646472657373000000000000000000000000000000000000000000006020830152604082019050919050565b60006120ad6029836127f1565b91507f4552433732313a206f776e657220717565727920666f72206e6f6e657869737460008301527f656e7420746f6b656e00000000000000000000000000000000000000000000006020830152604082019050919050565b6000612113602e836127f1565b91507f45524337323155524953746f726167653a2055524920736574206f66206e6f6e60008301527f6578697374656e7420746f6b656e0000000000000000000000000000000000006020830152604082019050919050565b60006121796020836127f1565b91507f4552433732313a206d696e7420746f20746865207a65726f20616464726573736000830152602082019050919050565b60006121b96031836127f1565b91507f45524337323155524953746f726167653a2055524920717565727920666f722060008301527f6e6f6e6578697374656e7420746f6b656e0000000000000000000000000000006020830152604082019050919050565b600061221f602c836127f1565b91507f4552433732313a20617070726f76656420717565727920666f72206e6f6e657860008301527f697374656e7420746f6b656e00000000000000000000000000000000000000006020830152604082019050919050565b60006122856029836127f1565b91507f4552433732313a207472616e73666572206f6620746f6b656e2074686174206960008301527f73206e6f74206f776e00000000000000000000000000000000000000000000006020830152604082019050919050565b60006122eb602f836127f1565b91507f4552433732314d657461646174613a2055524920717565727920666f72206e6f60008301527f6e6578697374656e7420746f6b656e00000000000000000000000000000000006020830152604082019050919050565b60006123516021836127f1565b91507f4552433732313a20617070726f76616c20746f2063757272656e74206f776e6560008301527f72000000000000000000000000000000000000000000000000000000000000006020830152604082019050919050565b60006123b76031836127f1565b91507f4552433732313a207472616e736665722063616c6c6572206973206e6f74206f60008301527f776e6572206e6f7220617070726f7665640000000000000000000000000000006020830152604082019050919050565b61241981612932565b82525050565b600061242b8285611df1565b91506124378284611df1565b91508190509392505050565b60006020820190506124586000830184611d61565b92915050565b60006080820190506124736000830187611d61565b6124806020830186611d61565b61248d6040830185612410565b818103606083015261249f8184611d7f565b905095945050505050565b60006040820190506124bf6000830185611d61565b6124cc6020830184612410565b9392505050565b60006020820190506124e86000830184611d70565b92915050565b600060208201905081810360008301526125088184611db8565b905092915050565b6000606082019050818103600083015261252a8186611db8565b90506125396020830185612410565b6125466040830184611d61565b949350505050565b6000602082019050818103600083015261256781611e22565b9050919050565b6000602082019050818103600083015261258781611e88565b9050919050565b600060208201905081810360008301526125a781611ec8565b9050919050565b600060208201905081810360008301526125c781611f2e565b9050919050565b600060208201905081810360008301526125e781611f6e565b9050919050565b6000602082019050818103600083015261260781611fd4565b9050919050565b600060208201905081810360008301526126278161203a565b9050919050565b60006020820190508181036000830152612647816120a0565b9050919050565b6000602082019050818103600083015261266781612106565b9050919050565b600060208201905081810360008301526126878161216c565b9050919050565b600060208201905081810360008301526126a7816121ac565b9050919050565b600060208201905081810360008301526126c781612212565b9050919050565b600060208201905081810360008301526126e781612278565b9050919050565b60006020820190508181036000830152612707816122de565b9050919050565b6000602082019050818103600083015261272781612344565b9050919050565b60006020820190508181036000830152612747816123aa565b9050919050565b60006020820190506127636000830184612410565b92915050565b6000604051905081810181811067ffffffffffffffff821117156127905761278f612ab7565b5b8060405250919050565b600067ffffffffffffffff8211156127b5576127b4612ab7565b5b601f19601f8301169050602081019050919050565b600081519050919050565b600081519050919050565b600082825260208201905092915050565b600082825260208201905092915050565b600081905092915050565b600061281882612932565b915061282383612932565b9250827fffffffffffffffffffffffffffffffffffffffffffffffffffffffffffffffff0382111561285857612857612a2a565b5b828201905092915050565b600061286e82612932565b915061287983612932565b92508261288957612888612a59565b5b828204905092915050565b600061289f82612932565b91506128aa83612932565b9250828210156128bd576128bc612a2a565b5b828203905092915050565b60006128d382612912565b9050919050565b60008115159050919050565b60007fffffffff0000000000000000000000000000000000000000000000000000000082169050919050565b600073ffffffffffffffffffffffffffffffffffffffff82169050919050565b6000819050919050565b82818337600083830152505050565b60005b8381101561296957808201518184015260208101905061294e565b83811115612978576000848401525b50505050565b6000600282049050600182168061299657607f821691505b602082108114156129aa576129a9612a88565b5b50919050565b60006129bb82612932565b91507fffffffffffffffffffffffffffffffffffffffffffffffffffffffffffffffff8214156129ee576129ed612a2a565b5b600182019050919050565b6000612a0482612932565b9150612a0f83612932565b925082612a1f57612a1e612a59565b5b828206905092915050565b7f4e487b7100000000000000000000000000000000000000000000000000000000600052601160045260246000fd5b7f4e487b7100000000000000000000000000000000000000000000000000000000600052601260045260246000fd5b7f4e487b7100000000000000000000000000000000000000000000000000000000600052602260045260246000fd5b7f4e487b7100000000000000000000000000000000000000000000000000000000600052604160045260246000fd5b6000601f19601f8301169050919050565b612b00816128c8565b8114612b0b57600080fd5b50565b612b17816128da565b8114612b2257600080fd5b50565b612b2e816128e6565b8114612b3957600080fd5b50565b612b4581612932565b8114612b5057600080fd5b5056fe646174613a6170706c69636174696f6e2f6a736f6e3b6261736536342c65794a755957316c496a6f6952484a685a6e516752474635496977695a47567a59334a7063485270623234694f694a51624746354948527649473170626e5167655739316369426d61584a7a6443424f526c51675957356b49474a6c4947527959575a305a575167615735306279423061475567596d6c6e4947786c595764315a5334694c434a706257466e5a534936496d68306448427a4f6938766147566864476c755a3356774c6d4e764c326c745957646c637939776158686c6243316959584e725a585269595778734c5739754c575a70636d55755a326c6d4969776959585230636d6c696458526c637949365733736964484a686158526664486c775a534936496b786c646d567349697769646d4673645755694f694978496e307365794a30636d4670644639306558426c496a6f6951323968593267694c434a32595778315a534936496b786864584a6c62694a395858303d416e204e465420772f20494420257320686173206265656e206d696e74656420746f202573a264697066735822122070e4b6f4abe686328815b9961d56fefe00aa21cd19b7a32e7cdc5e29af096e3964736f6c63430008000033",
  "linkReferences": {},
  "deployedLinkReferences": {}
}